:020000022000DC
:106000000000042061620200B9620200BB6202006B
:10601000BD620200BF620200C16202000000000017
:10602000000000000000000000000000C362020049
:10603000C562020000000000C7620200C9620200DF
:106040002D830200CF620200ED870200D3620200BE
:10605000D5620200D762020049860200DB620200BC
:10606000DD620200DF620200E1620200E362020020
:10607000E5620200E7620200E9620200EB620200F0
:10608000ED62020035700200F1620200F36202006C
:10609000D1700200F76202007D9F0200FB620200E5
:1060A000FD620200FF62020001630200036302005E
:1060B000C58A020007630200CB620200CB620200C5
:1060C00009630200D58A0200E58A02000F6302001C
:1060D00011630200136302001563020017630200DC
:1060E000196302001B6302001D630200CB62020001
:1060F000CB62020021630200CB6202001F63020038
:10610000364937480A1A02D0072291438D4635494D
:1061100035480A1A06D00722914381F309880222E2
:1061200082F3148831483249324A00F045F8324847
:106130003249334A00F040F832483349334A00F0DC
:106140003BF833483349344A00F036F83348344991
:10615000344A00F031F834483449354A00F02CF81C
:1061600034483549354A00F027F83548354900228A
:1061700000F02DF834483549002200F028F8344862
:106180003449091A082903DB002202600430016047
:10619000314A90471F482049884205D002680430A0
:1061A00003B4904703BCF7E700208646EC46002086
:1061B00000212A4A9047FEE7884207D0521A05D0AC
:1061C000037801300B700131013AF9D170478842F0
:1061D00002D002700130FAE770470000000004208E
:1061E00000E003200000042000000420CCB30200E3
:1061F000B81D0020DC20002024630200246302007C
:1062000086A40200CCB30200B81D0020B81D0020F7
:10621000E0A50200E0A50200E0A50200E0A5020062
:10622000E0A50200E0A50200E0A50200E0A5020052
:10623000CCB30200F0B60200DC200020DC200020FD
:10624000DC2000209C2F00209C2F00209C2F002071
:106250009C2F00209C2F0020856202007D8E020072
:106260000F484FF00701884385460E4880470E4887
:10627000016841F470010160BFF34F8FBFF36F8F6E
:10628000FFF73EBF09480A490A4A884207D0521A16
:1062900005D0037801300B700131013AF9D1704714
:1062A00000000420D17E020088ED00E098A50200E5
:1062B000701D0020B81D0020FEE7FEE7FEE7FEE7A8
:1062C000FEE7FEE7FEE7FEE7FEE7FEE7FEE7FEE7A6
:1062D000FEE7FEE7FEE7FEE7FEE7FEE7FEE7FEE796
:1062E000FEE7FEE7FEE7FEE7FEE7FEE7FEE7FEE786
:1062F000FEE7FEE7FEE7FEE7FEE7FEE7FEE7FEE776
:10630000FEE7FEE7FEE7FEE7FEE7FEE7FEE7FEE765
:10631000FEE7FEE7FEE7FEE7FEE7FEE7FEE7FEE755
:04632000FEE700BFD5
:106324007047000007B5044B0093044A402300F073
:1063340032F803B05DF804FB45630200DD20002061
:106344002DE9F84389461446B2B10F4B0F4E03258D
:10635400002743F00108224609EB0701002002F060
:10636400A7FE0744241A48B933782BB14FF47A4076
:10637400C047013D02D13570BDE8F8830123337075
:10638400002CE8D1F8E700BFE0A50200DC200020E3
:10639400704702F0C1BEF0B595B01C4616460846DB
:1063A4000D4601F0A2FC1A9B0D93CDE9086400246C
:1063B4002346082205A928460A948DF82C400C94FB
:1063C40001F0CFFC079B0293BDF81830ADF80C30F8
:1063D400BDF81A30ADF80E309DF814308DF8114028
:1063E40003F00302012A1DD1BDF81440059EC3F336
:1063F400C203C4F383148DF81030A20008230EA93D
:10640400284601F0AEFCC6F3952608AB009322465D
:1064140002AB0EA9304600F065FB284601F069FC8A
:1064240015B0F0BD022AF8D1BDF81640C3F3C2037B
:10643400A4098DF810300827082C264628BF082602
:106444003B4632460EA9284601F08BFCA41B08AB40
:1064540002AA31460EA8374400F0A8FB002CEBD169
:10646400DBE7000010B5054CFFF793FF042120463D
:1064740000F0A8FA0123637210BD00BFB81D00200C
:10648400037813F0030F03F0040202D012B910468C
:106494007047B2B103F00303012B03D0022B09D0E0
:1064A400012070470A6800880232C0F38310024456
:1064B4000A60F5E70B684288023303EB92130B6022
:1064C400EEE70B684288013303EB92130288F4E78A
:1064D4002DE9F04F89B00546861C08A8484C019266
:1064E40000230F4600F8113D00F0DCFF23683B60F9
:1064F400D4E901231344226801339B1A04F21C4794
:1065040004F5836A04F21448B3421AD3019A0023AF
:10651400002A6DD0012262F3010343F0040365F302
:1065240089132168A2689DF80F000A4003320E44C3
:1065340044F82230266000F0D9FF012009B0BDE8FC
:10654400F08F0121384601F069F8504601F07CF8DB
:10655400404601F079F80DF120096068D4F808B0DC
:1065640049F8100D00EA0B00033004EB80004946A3
:10657400FFF786FF049BB0B90BEA030204EB820227
:10658400D16805919A1C013303EA0B0B04EB8B0CC5
:1065940001F00303012B0492DCF80CB020D0022B91
:1065A40004D083460BE00BEA0300DDE7BDF81630A8
:1065B4009B0903334FEA1B4B02EB930304934046BE
:1065C40001F045F808B1049B63605946384601F070
:1065D40025F8D4E901231344226801339B1A93E775
:1065E400BDF81430C3F383134FEA1B4B1344E5E7A0
:1065F400022262F3010343F0040365F39F5390E71F
:10660400F021002008B50E4B0E48FF229A600022AC
:10661400C3F81824C3E90022C3F8142483F82024FF
:1066240001F01CFB38B9084A084B09499B1ADB08DE
:1066340002469A4200D108BD21F822200132F8E72F
:10664400F021002058A50200C8A4020058A50200A9
:10665400701D002030B50B4C79B10B4A0B49121B4D
:10666400D20800239A4201D1002030BD01EB8305FA
:106674006D88854202D00133F4E7034654F83300B1
:10668400F3E700BFC8A4020058A50200701D002053
:10669400094B013903EBC000032909D8DFE801F0F5
:1066A4000A02040604207047007970474079704755
:1066B4000020704702207047C8A40200034BD3E9AE
:1066C4000030C31A58425841704700BFF0210020DF
:1066D4002DE9F04387B0FFF7F1FF0746002840F0AB
:1066E400F5807B4DC5F81804BFF34F8F6868AC681C
:1066F4000DF1180848F8100D2040033005EB800018
:106704004146FFF7BDFE029B064600285FD104EA1E
:106714000302991C013305EB8202234005EB83033A
:10672400D268DB68049302F00303022B0392029104
:1067340062D1BDF80E3067484FEA9318B8F1500F94
:10674400C14628BF4FF0500969F38F1309F10801BE
:10675400ADF80E3001F09AFA0746002800F0A48044
:1067640001F0C3FA334603A90822384601F0D0FAEF
:10677400029924EA01060136B600B14535D95FFA1B
:1067840089F97EB3F6B2A9EB0609214003315FFA19
:1067940089F4B146504E05EB810108234A46384638
:1067A40001F0B6FA36B109F10803224631463846FB
:1067B40001F0AEFA029B08F1030803EB980302937D
:1067C400D5F81834002B4AD1D5F8104458E02A687B
:1067D4009A4204D86A60384607B0BDE8F08304EAF8
:1067E40003008AE73C493446D7E7214003310823B4
:1067F4004A4605EB8101DAE7012B55D1BDF80C308F
:106804003448C3F38311062928BF062161F3891391
:1068140002318900ADF80C3001F038FA074600283F
:1068240042D001F062FA3346082203A9384601F047
:106834006FFABDF80C20C2F38312B31C96424FEAE0
:106844008303BDD202994A1C21400331029205EB15
:1068540081010422384601F05BFA0136E9E7384643
:1068640001F047FAFFF72AFF80F00100C7B2B2E750
:10687400637A23B1236839461B68204698476468C5
:10688400002CF5D1384601F034FA06A800F8114D71
:1068940000F008FED5F818340BB9029B6B609DF824
:1068A400070000F023FEDDE7D5F8104444B90B4B94
:1068B4000B491888000440F0020000F06BF8D1E79F
:1068C400236820469B6898476468EFE7002782E7BF
:1068D400F021002058A50200FC210020881D002082
:1068E400F4A502002DE9F74F284C80460F46924646
:1068F40001A9012218469B46D4F80890FFF7E8FD49
:1069040088B3019D0026A91C5E4506EB010234D123
:1069140000211F4800F057FE80F310006A1C02EAB1
:10692400090204EB8202000405EA0903033340EA86
:106934001840D06014F8232068F3C50204F823201B
:1069440034F8232066F3891224F8232054F82320F2
:10695400012167F39F2244F8232061F301026FF3BE
:10696400820204F8232094F820341BB1FFF7B0FE10
:106974000028FBD103B0BDE8F08F09EA020204EB62
:1069840082025AF82630D3600136BDE7F021002098
:106994000C26002000231A46FFF7A4BF13B502AC4F
:1069A400012344F8042D2246FFF79CFF02B010BDDA
:1069B40007B5CDE9002302236A46FFF793FF03B02E
:1069C4005DF804FB0F4A30B5D2F810440023214689
:1069D40041B90372D2F810444CB9C2F810044160B2
:1069E400184630BD0D7A9D4205D04968F0E76268CB
:1069F40042606060F4E701330A2BE8D14FF0FF33C3
:106A0400EEE700BFF0210020084A38B50123D2F890
:106A1400104482F820341D4604B938BD23686572D9
:106A240020465B6898476468F6E700BFF0210020C1
:106A3400037A052B10B50C460FD0437A23B1084ACC
:106A44000849204600F064FE0749204600F060FE35
:106A54002046BDE8104000F050BE002AF8D0F3E70D
:106A64004FA60200A7AC020071A60200C38873B54A
:106A740004460D4633B1144A00921449144A284678
:106A840000F046FE217A05291CD0637A4BB1A08818
:106A9400FFF7FEFD0F4B104953F82020284600F065
:106AA40037FE227A0D4BA08853F822600021FFF7AD
:106AB400D1FD0B4903463246284602B0BDE870407A
:106AC40000F026BE02B070BD4FA602005CA6020014
:106AD40054A602001CA60200A7AC020080A6020075
:106AE40074A602002DE9F04385B01F460C9D0023D7
:106AF40006460C46904695F80C902B73294638466A
:106B0400FFF7B4FFB8F1060F09D8DFE808F0041264
:106B1400181F283340003146284600F0F9FD0022B2
:106B240029463846FFF784FF85F80C9005B0BDE888
:106B3400F08322683146284600F0EAFDEFE7D4E905
:106B440000233146284600F0E3FDE8E7A3680093FC
:106B54003146D4E90023284600F0DAFDDFE7E36894
:106B64000193A36800933146D4E90023284600F03A
:106B7400CFFDD4E723690293E3680193A3680093EC
:106B84003146D4E90023284600F0C2FDC7E7636913
:106B9400039323690293E3680193A3680093314646
:106BA400D4E90023284600F0B3FDB8E708292DE90D
:106BB400F84F80460E4617461C4636D8002593F8F3
:106BC4000C901D7319461046FFF750FFDFF87CA0A8
:106BD400DFF87CB0AE422AD918F805205946204681
:106BE40000F096FD0135082DF4D11649DFF864B0A4
:106BF400204600F08DFD0025AE421DD918F805A0F1
:106C0400504603F055FB002814BF52462E22594625
:106C1400204600F07DFD0135082DEDD101222146ED
:106C24003846FFF705FF84F80C90BDE8F88F51460D
:106C3400204600F06DFDD5E70349204600F068FDCD
:106C4400E9E700BF4AA6020048A6020046A60200E1
:106C540040A602004CA602002DE9F04F3B4F89B03C
:106C640000263B4B1B78F5B2AB4202D809B0BDE815
:106C7400F08F384B196811F835000124A0F1200277
:106C8400C0F1200304FA02F924FA03F349EA0309E0
:106C9400D7E9002304FA00F8CDE9042302EA080244
:106CA40003EA0903134301EBC50B4CD0DDE90423CC
:106CB40022EA080223EA0903C7E90023079101F045
:106CC400B1FC0799844611F83500A0F12002C0F107
:106CD400200324FA03F304FA02F21A4304FA00F339
:106CE40000931D4B0192DDE90045D3E900231440D4
:106CF4001D4022462B465FFA8CF40025CDE904455D
:106D0400049CA0F12005AC400394049CC0F1200134
:106D140024FA01F1039C0C430499039481400291E9
:106D2400DDE90245AB4208BFA2420CD19BF8011039
:106D34004B1E59425941A1EB0C02DBF8043051427D
:106D4400514103B1984701368BE700BF4826002024
:106D54001426002050260020402600202DE9F84F5C
:106D64000646244800F08EFB002841D10123A6F1F9
:106D74002001C6F1200203FA01FB23FA02F203FA0E
:106D840006FA1D4BD3E900014BEA020B00EA0A089C
:106D940001EA0B0958EA09021F4623D1304601F0E3
:106DA40041FC164BB8B1D3E9000140EA0A0441EAB8
:106DB4000B05C3E90045D7E900234BEA0305104B53
:106DC4000C4819684AEA0204C7E900450022BDE8F4
:106DD400F84F00F013BBD3E9000120EA0A0421EACA
:106DE4000B05E6E720EA0A0421EA0B05C3E900459E
:106DF400BDE8F88F1C2600204826002040260020ED
:106E040018260020042A2DE9F34105460C461646AF
:106E14003AD901F02DFBD8B11C4B1D491D601D4B07
:106E2400DFF884801C701C4B00221E600023C1E923
:106E340000231A49C1E90023013CE4B200260327D8
:106E4400FF2C0CD1164A1748002100F0C5FA03E0C4
:106E540001F0D6FA0028DFD002B0BDE8F08123B2F9
:106E640005EBC30201A992788DF8052015F83300CB
:106E74008DF8066042468DF8047001F003FB013C76
:106E8400E4B20028DCD0E7E70720E5E7502600203D
:106E94004026002014260020182600204826002022
:106EA4005D6C0200E0A60200616D020070B5084D41
:106EB400084E00242B789C4201D3002070BD336817
:106EC400012113F8340001F063FB0134F2E700BF41
:106ED40014260020502600201FB50021039001AA8B
:106EE40044F20100CDE9011100F004F805B05DF8A9
:106EF40004FB000010B572B6FFF786FDFFF7E8FB50
:106F04000028FBD1104C11492088000440F00100F6
:106F1400FFF740FD0E4B1B68DB0700D500BE208841
:106F24000C49000440F00200FFF734FDBFF34F8F1B
:106F340009490A4BCA6802F4E0621343CB60BFF309
:106F44004F8F00BFFDE700BF881D0020E4A60200AC
:106F5400F0ED00E0F0A6020000ED00E00400FA0508
:106F6400094A537891780133DBB2994208BF002370
:106F7400117899421FBF03705078182303FB002037
:106F840014BF0430002070475426002073B5054612
:106F940002A8002400F8014D0E4600F083FA0DF11A
:106FA4000600FFF7DDFF90B106700A4B9DF806203E
:106FB40045605A709DF8070000F098FA24B9064B12
:106FC4004FF48012C3F80021204602B070BD04249F
:106FD400F0E700BF5426002000E100E0024B4FF42C
:106FE4003C6043F00103184700A7020038B50C4B7E
:106FF4000C4C4FF40032C3F8802001254FF4803349
:10700400C4F84833C4F808336560FFF7E7FF064B5C
:10701400A56000241C60FFF7E1FF044B1C7038BD21
:1070240000E100E0001001407027002061270020EB
:10703400F8B51F4B1F491B680025C1F84051C1F822
:107044004451C1F84851C1F84C51C1F80051C1F83C
:1070540004514BB3D1F8044517490968641A24F064
:107064007F442F461A68A24209D8A41A15441A7CF0
:10707400DE691AB11F74D3E905209047AEB90F4BEE
:107084000F4A197813788B4205D10133DBB2022BF6
:1070940008BF0023137012780A4B43F822500A4B9E
:1070A4004FF48012C3F80021F8BD3346DAE700BF7D
:1070B4007427002000100140702700206C27002056
:1070C4006D2700206427002000E100E02DE9F74F40
:1070D4009E4A9F49137809789E4D99423CD00133CA
:1070E400DBB2022B08BF002313709B4912789B4B21
:1070F4000F6853F822003B1823F07F4300220B60F3
:107104002B6816461446944613B942B12B6006E028
:10711400196881420ED902B12B60091A19604FF027
:1071240001082B68DFF83CA200930027BEB9DFF802
:107134003CB260E0401A0C44D968C3F800C0D3F8EC
:107144001CE031B13A1922F07F42C3E90121DE612A
:107154001E4601227346D7E70026B046E1E73446CF
:10716400F6697D4A63681268DFF804C2A068991A58
:1071740021F07F41614500F2A58001442160012294
:1071840022742A680023C4E90133E361002A40F031
:10719400A2802C60CAE75A1C9BF80210D2B291421A
:1071A4008BF8002004BF00228BF80020182202FB79
:1071B40003B32A6819799C68022974D003297ED004
:1071C400012918D1217CB1B9DA6862601A69A26018
:1071D4005A699B69A361624BE2601B78002BC0D0A3
:1071E4006160BEE79C4200F093809946DB69002B06
:1071F400F8D1002323749BF800309BF801209A42B5
:10720400C9D12B682FB9009A934202D1B8F1000F6B
:1072140043D0002B79D0D3F800A0524D4E4BD5F873
:1072240004751C68DFF84C813E1B98F8003026F08A
:107234007F4603369BB94FF48033C5F84433C5F811
:107244000433494B4FF400324FF00109C3F8802155
:107254001A60C5F80090FFF7C1FE88F80090B245A7
:107264002CBF5444A41924F07F44C5F84045D5F8F4
:107274000435DB1B23F07F43E41B033324F07F44FA
:10728400A3420AD9D5F80435C5F84035FFF7A6FE60
:10729400354B4FF40032C3F80021314B00221A70F1
:1072A40003B0BDE8F08F13469146A0E71174D2698C
:1072B4000123002AFAD1002B9DD02A609BE70023EA
:1072C4001946F6E7D31A23F07F43834234BFC31A27
:1072D4000023236053E721681368994213D8591A8D
:1072E4001160E26155E7091AD8691A4638B10346B4
:1072F40018688842F7D3401A18601846134621606C
:10730400E061DC6112E71346F2E7FFF76FFEC4E7C2
:107314004C450DD1D3692B6053B90F48019201211B
:10732400CAF8081003600E4B1970FFF757FE019A54
:10733400E1692368C9F81C1011B1086803440B60A3
:107344002B689A4218BF012753E700BF6C2700201F
:107354006D27002074270020702700206427002058
:10736400602700200010014000E100E054260020C6
:10737400FEFF7F006127002008B5FFF737FE104BA2
:1073840000200B2218809A700E4B18600E4B187058
:107394000E4B18700E4B4FF48012E021C3F880217D
:1073A40083F814131A6002F18042A2F56F22C2F826
:1073B400080583F81113074BD2F804251A6008BD99
:1073C40054260020742700206C2700206D270020FD
:1073D40000E100E070270020074B9B784BB132B1ED
:1073E40028B10368187C20B959745A617047072082
:1073F40070470820704700BF542600202DE9F7434A
:107404001D4FBB7805460E4690469BB390B30429A6
:107414002ED9436973B3437C02A80024012B00F8DE
:10742400014D0CBF8946A14600F03CF80DF1060061
:10743400FFF796FDD0B101230370104B4560D3F8DC
:107444000435C0E90498C0E902369DF806307B7023
:107454009DF8070000F04AF824B9094B4FF4801254
:10746400C3F80021204603B0BDE8F0830424EFE70D
:107474000724F7E70824F5E754260020001001400C
:1074840000E100E0064A92783AB130B1426922B193
:10749400002202740221FFF779BD0820704700BF63
:1074A4005426002070B5EFF3108672B60C4A946827
:1074B40001239CB993600B4B0B4DD3F880102940EA
:1074C4001160C3F88050D3F8841051604FF0FF323C
:1074D400C3F88420047006B962B670BD0370FAE77D
:1074E4007827002000E100E0FC06FFBD084B9A6805
:1074F40010B55AB150B9EFF3108172B6054A1C6841
:1075040014605C685460986001B962B610BD00BF35
:107514007827002000E100E037B550E8023F1FFA69
:10752400A3F5C488A54202BFBFF32F8F00220DE04C
:10753400C48925448489A54228BF2D1BC3EA054577
:1075440040E80254002CE8D14FF001028DF80320EA
:107554000193019B9DF803200B6002F0FF0322B10D
:107564004B880068184403B030BD1846FBE70A880E
:107574004B889A4209D150E8022FC2EA224240E8DD
:107584000223002BF7D1012070470020704701F03F
:107594001F024B090121914000EB830000F01DB84C
:1075A40001F01F0301229A404B0900EB8300D143F1
:1075B40000F029B84B0901F01F0150F82300C8401E
:1075C40000F00100704750E8002F0B4640E8003CF3
:1075D4009CF0000FF7D11046704750E8003F43EA93
:1075E400010240E8002C9CF0000FF6D110467047D1
:1075F40050E8002F02EA010340E8003C9CF0000F31
:10760400F6D11046704750E8003F03EA010240E813
:10761400002C9CF0000FF6D11046704750E8003F54
:1076240003EB010240E8002C9CF0000FF6D1104659
:10763400704750E8003FA3EB010240E8002C9CF0A7
:10764400000FF6D1104670470121FFF7C6BF002195
:10765400FFF7CEBF10B590B1D0E9012301689B1AA2
:10766400DBB20A60013BDBB2FF2B026802D10020CF
:10767400107110BD11684C1C14600B70F2E70E20E1
:10768400F7E737B5054602A8002400F8014DFFF7D7
:1076940009FF2A686B68116899420ED9481E106068
:1076A40011F8014CEB68A98A01FB0434AB68117929
:1076B4001B1ADBB2994238BF13719DF80700FFF71C
:1076C40015FF204603B030BD37B5054602A8002398
:1076D40000F8013D0C46FFF7E5FE2A681368591CC3
:1076E4001160E968641AA98AB4FBF1F41C709DF86E
:1076F4000700FFF7FBFE03B030BD826810B50446F7
:107704002AB143690168006998470023A36010BD4A
:107714000EB403B5039929B102AA04AB42F8043D9F
:1077240000F06AF802B05DF804EB03B070478268B9
:1077340030B40468551C8560A154D0E901329A42E2
:1077440002D330BCFFF7D9BF30BC70472DE9F84FE6
:107754009946DDE90A431746824688460A460126C9
:10776400BA420FD24E4538BF4E4613F0010B01D139
:1077740064B900240125B9F1010F1AD909F1FF39BF
:107784007D43F8E7B2FBF7F20136E9E79B070ED534
:10779400B9F1000F0CBF30252025A642EAD2013CE6
:1077A40029465046FFF7C3FF002CF6D1E1E7202518
:1077B400F3E7B8FBF5F39F42E2D9DFF83890B8FB62
:1077C400F5F3504619F8031005FB1388FFF7AFFFD4
:1077D400B5FBF7F5002DF2D1BBF1000F02D00CB1CF
:1077E400A64201D3BDE8F88F20215046013CFFF7A3
:1077F4009EFFF4E706A702002DE9F74F05469046E1
:107804000E46002900F03A8116F8011B002958D0D1
:10781400252940F0D180002702E047F001071646F1
:10782400324612F8013B2D2BF7D0302B04D02B2BF2
:1078340005D147F00407F2E747F00207EFE7002419
:107844002A2B06F101021BD1D8F80030191D1B6840
:10785400C8F800101C44164633782E2B1CD1013670
:107864004FF0000A314611F8012BA2F1300009282B
:1078740014D80A2303FB0A23A3F1300A0E46F1E7C6
:1078840012F8013CA3F130010929E5D80A2101FBD2
:107894000434303C1646D3E74FF0000A324612F85F
:1078A400011B01F0FB0068281646F8D0692916D0A0
:1078B40054D8582970D00ED825297DD03378002B80
:1078C400A2D12B7B002B00F0D980284603B0BDE861
:1078D400F04FFFF712BF632968D06429EED1D8F8BE
:1078E4000020D2F80090111D89EAE972C8F800104E
:1078F400A2EBE9724FF0010B092A61DCD34538BFD2
:10790400D3462CB1B9F1000F01DB790700D5013C56
:10791400BA0702D5BAF1000F04D0FB0702D4002C39
:1079240054D10024B9F1000F58DAC9F100092D210E
:107934002846FFF7FCFE07F00302022A05D1BAF13C
:10794400000F02D1002C4DD10024CDE9004753464D
:107954000A2249462846FFF7F9FEAFE7732954D0B7
:1079640016D87029AAD1D8F800301A1DC8F80020FA
:10797400302128461C68FFF7DAFE78212846FFF7F5
:10798400D6FE00220823CDE9003221461022E1E789
:1079940075292FD0782991D1D8F800100A1DC8F87C
:1079A4000020CDE90047534610222CE0D8F80030DF
:1079B4001A1D1978C8F800202846FFF7B8FE7DE79D
:1079C4000A230BF1010B92FBF3F295E7A345A9D22D
:1079D40020212846013CFFF7AAFEA0E77807AAD594
:1079E4002B21A5E7A345B0D230212846013CFFF75F
:1079F4009EFEA7E7D8F80010CDE900470A1DC8F895
:107A0400002053460A220968A4E7D8F800301A1D5A
:107A1400C8F80020F907D3F8009012D54F46A7EB19
:107A2400090B17F8011B41B9A345BFF447AF202147
:107A34002846013CFFF77BFEF6E72846FFF777FE72
:107A4400EDE7B9F1000F17D0484602F0EAFC07460B
:107A5400BC4200D954B909F1FF3919F8011F0029B2
:107A64003FF42CAF2846FFF762FEF6E720212846B4
:107A7400013CFFF75CFEEBE74F46E9E703B0BDE8E6
:107A8400F08F29DF704728DF704770B503689D6861
:107A940086B004460E466DB114220021684602F0F9
:107AA4006BFCA3680593237901962BB1012B0DD0B0
:107AB4006846A84706B070BD01238DF800302369DD
:107AC4000293E368039363690493F1E702238DF857
:107AD4000030E3681B030293F5E70000034B187AB8
:107AE4000122B0FA80F05A744009704784270020BC
:107AF40070B5244D244E2B7A2C463BB92349244897
:107B0400FFF70AFD306008B9686070BD0223237274
:107B140033681A7972B1012A24D018460321FFF779
:107B2400B4FF00232372636018491948BDE870400C
:107B3400FFF71DBDD3E90520121AB2F5805F28BFF7
:107B44004FF48052D3E903159208012A014438BF47
:107B540001222844FFF795FF50B11128DDD10123FC
:107B64002372D2E7D3E903021044FFF78CFFF3E753
:107B7400237C002BC9D10146BDE87040022000F0EF
:107B840009B800BF842700209C27002098270020E4
:107B9400C41D002038B5831E012B45D8234C237AFD
:107BA400002B41D0022B09D1032830D0204B1B6875
:107BB4000022E2601A793AB1012A22D0637C7BBBAD
:107BC400BDE83840FFF794BFD3E905128D1AB5F527
:107BD400805F94BF521902F580529A619142EDD1AF
:107BE40002284FF0000308BF19462372104B18BF38
:107BF4000D211868FFF749FF0E490F48FFF7B7FC3E
:107C0400DCE71A6901321A615B699A42E7E7E368C3
:107C14000133082B01D8E360D0E70023E360DFE7FA
:107C2400BDE8384002F07EB938BD00BF842700208B
:107C34009C27002098270020C41D002000F0FD038D
:107C4400012B08D1044B00225A74421E5042504169
:107C54001874FFF74DBF704784270020FFF7FABC64
:107C6400F8B546790146721E0546002393422D68F5
:107C740003D30024A64202D8F8BD0133F6E70F6807
:107C84002846FFF721FD01343946F3E72DE9F8438F
:107C9400868ACD1C0746FFF7F4FC043E35440446AF
:107CA400B5FBF6F5F0B14FF48073EDB28380C68076
:107CB400013D076081464FF00008A84512D23846BE
:107CC400FFF7DFFC064648B163790133637108F1BD
:107CD4000108C9F8000007608146EEE72046FFF777
:107CE400BFFF34462046BDE8F88301210430FFF786
:107CF40095BC10B5012104460430FFF79AFC10F03E
:107D0400FF0F04D12046BDE81040FFF7A9BF10BD06
:107D14002DE9F843C7880546181D8846B0FBF7F4DB
:107D2400164607FB14003CB9A7EB0009B14528BF70
:107D3400B14626B9BDE8F8832D68013CF3E7043069
:107D4400A6EB09064A4608EB0401284402F0EBFAC4
:107D5400B7424C442D68B9464FF0000028BFB146E5
:107D6400E7E72DE9F843C7888846191D0546B1FBA6
:107D7400F7F4164607FB14113CB9A7EB0109B1450A
:107D840028BFB14626B9BDE8F8832D68013CF3E766
:107D940004312944A6EB09064A4608EB040002F024
:107DA400C2FAB7424C442D68B9464FF0000128BFCF
:107DB400B146E7E741DF7047064B10B500241C705D
:107DC400054B1C60BFF35F8F0449054800F030F891
:107DD400204610BDA8270020AC27002034A70200AD
:107DE400A027002007B502A8002300F8013DFFF7F3
:107DF40059FBF1EE103A23F09F03E1EE103ABFF382
:107E04005F8F0A4B4022C3F884219DF80700FFF7D7
:107E14006DFB02F097F820B1FFF7CCFF03B05DF8DB
:107E240004FB20BF40BF20BFF8E700BF00E100E033
:107E34000B684A684360934208BF0023016008BF8F
:107E440043607047436843B10268916852680B44C9
:107E54009342436004BF0023436070470D4930B52B
:107E6400A1F594720225914201D800200EE08B1AEC
:107E7400DB1093FBF5F302EBC30452F83330834277
:107E840005D802D204F10802EDE7606830BD21464E
:107E9400E9E700BF84A8020008B5FFF7DFFF024B43
:107EA400002808BF184608BD49A70200054B1B68F7
:107EB400082B01BF044B1868B0FA80F0400918BFC2
:107EC40000207047300100103401001008B54FF055
:107ED40080430022C3F80C21C3F81021C3F83825CD
:107EE4004FF0805203F54043D2F80414C3F8201530
:107EF400D2F80814C3F82415D2F80C14C3F82815C2
:107F0400D2F81014C3F82C15D2F81414C3F8301591
:107F1400D2F81814C3F83415D2F81C14C3F8401559
:107F2400D2F82014C3F84415D2F82414C3F8481521
:107F3400D2F82814C3F84C15D2F82C14C3F85015F1
:107F4400D2F83014C3F85415D2F83414C3F86015B9
:107F5400D2F83814C3F86415D2F83C14C3F8681581
:107F6400D2F84014C3F86C15D2F84424C3F8702531
:107F7400FFF79CFF10B1384B384A1A60FFF796FFA1
:107F840018B1374BFB22C3F81825FFF78FFF48B110
:107F94003449354B0A681B6822F00F0203F00F03C3
:107FA40013430B60FFF782FF18B1304B4FF400729C
:107FB4001A604FF08043D3F80024D20744BF6FF017
:107FC4000102C3F800242A4AD2F8883043F470032B
:107FD400C2F88830BFF34F8FBFF36F8F4FF0102379
:107FE400D3F80022002A03DBD3F80432002B2FDA63
:107FF400204B0122C3F80425D3F80024002AFBD027
:108004004FF010221221C2F80012D3F80024002AE3
:10801400FBD04FF010231222C3F80422154B1A464A
:10802400D3F800140029FBD00021C3F80415D2F8BA
:108034000034002BFBD0BFF34F8F0D490E4BCA68A1
:1080440002F4E0621343CB60BFF34F8F00BFFDE740
:108054000A4B0B4A1A6008BD8C5600404881030045
:1080640000F00040E40E0040580200104096024028
:1080740000ED00E000E001400400FA05D81D0020F6
:108084000090D003074B1B5C1F2B86BF03F01F031C
:1080940005494FF0A041012202FA03F3C1F80C355F
:1080A400704700BF3EAC020000030050074B1B5C4E
:1080B4001F2B86BF03F01F0305494FF0A041012287
:1080C40002FA03F3C1F80835704700BF3EAC020062
:1080D4000003005008B50020FFF7E8FF0120FFF778
:1080E400E5FF0220FFF7E2FF0320BDE80840FFF7A9
:1080F400DDBF0000C10710B5044642D54FF08043F0
:10810400D3F84036DA072ED54FF01023D3F80433D2
:1081140003F00703072B26D11D4B0122C3F80425C6
:10812400D3F80024002AFBD04FF01021D1F8042307
:1081340022F0070242F00402C1F804230022C3F82B
:108144000425134AD2F80034002BFBD0BFF34F8F21
:108154001049114BCA6802F4E0621343CB60BFF3C9
:108164004F8F00BFFDE74FF0A0420C490323C2F834
:108174005837C2F82037C1F82437C2F83037FFF730
:10818400A9FFA30742BF054B0C22C3F8182710BD53
:1081940000E0014000ED00E00400FA050003005097
:1081A40038B5084C04F108030546002818BF1C46DE
:1081B40023682BB11A6822605B6828469847F7E762
:1081C40038BD00BFB827002020B9054B01225A70E2
:1081D400FFF7E6BF012802D1014A9070F8E7704723
:1081E400B027002020B9034B01225A70FFF7D8BFF3
:1081F400704700BFB027002038B50B4C237883B9F3
:108204000A486360A3602361E36000F05FF80546F9
:1082140001F098FE08B900F067F80123237028469E
:1082240038BD8525FBE700BFB0270020CD810200C3
:1082340037B502A80023094C00F8013DFFF732F9D5
:10824400E368013BE360E56815B900F061F8A570E7
:108254009DF80700FFF74AF903B030BDB0270020AE
:10826400012813B509D003D303281BD002B010BDD5
:108274000F4B0122C3F88020F8E702A800230D4C1D
:1082840000F8013DFFF70EF923780BB9FFF7B4FFAF
:10829400E3689DF807000133E3600123A370FFF74F
:1082A40025F9E3E700F020F8FFF7C2FFDEE700BF9F
:1082B40000E100E0B027002000F18040002382B0FC
:1082C400036003680193019B02B07047054A137968
:1082D4002BB9012110601171537118467047852024
:1082E400704700BFC4270020084B1A68D20706D481
:1082F400E02283F800230122C3F880211A604FF0A2
:1083040080430122C3F81825704700BF00E100E054
:10831400044B01221A604FF08042D2F81834DB0378
:10832400FBD470470C000040124B1B6810B573B1AE
:108334004FF48070FFF7C0FF4FF080430122C3F871
:1083440008230D4B587910B95A711B6898470B4B89
:108354001B6873B14FF48270FFF7AEFF4FF0804398
:108364000222C3F80823044B01201B68BDE8104017
:10837400184710BD00010040C4270020040100403C
:1083840000F1804000F5C040002382B00360036820
:108394000193019B02B0704703681F2B83BF03F056
:1083A4001F03036001484FF0A040704700030050D2
:1083B40007B502AB43F8040D1846FFF7EDFF019B28
:1083C40000EB8300D0F8003723F44033C0F80037C3
:1083D400D0F8003743EA0141C0F8001703B05DF854
:1083E40004FB0000054B4FF0FF32072843F8202020
:1083F40084BF1B1883F85820704700BFCC27002087
:1084040010B5174C94F86A3043BBFF21E2180133CE
:10841400302B82F83010F9D10021C8B2FFF7E2FF07
:1084240001310C29F9D1062200210E4801F0A4FFE4
:108434000D4BE02283F806234022C3F880214FF439
:10844400BE701A60FFF79CFF084B4FF00042C3F860
:108454000423012384F86A30002010BD0820FCE7BF
:10846400CC2700203028002000E100E0006000401C
:10847400034B93F86A00003018BF0120704700BF17
:10848400CC270020F7B5404F3B18044693F9303011
:10849400002B944675DA8B78C3F34003002B15BF89
:1084A4000025082508200C20854202D1042003B0B1
:1084B400F0BD57F8252001324FEA850649D1381915
:1084C40047F825C080F8305013B97B1983F8584019
:1084D4008B785A071BD4D8073DD502A840F8084D1D
:1084E400FFF75AFF009B00EB8300D0F8003723F01E
:1084F4000203C0F800372548E20804F0070C012302
:1085040003FA0CF310F802C043EA0C03835488788E
:1085140091F800C010F002002AD006F1804303F560
:10852400C0432402D3F8102522F44F3222F44072BF
:10853400C3F810254FEA0C4CD3F8102504F47C54EE
:108544000CF4403C44EA0C041443C3F810450020E6
:10855400ADE70135A8E702A84A7840F8044DFFF7D3
:108564001BFF019B03F5E073920040F82320C2E750
:10857400083D3D4495F8604044EA8C1C85F860C091
:1085840095E7082093E700BFCC270020302800207F
:1085940073B5224C2518064695F93020072A1ADDB2
:1085A400224492F858309B09032B10D102A840F8BA
:1085B400046DFFF7F1FE019AD0F81035D340DB07C4
:1085C40007D402213046FFF7F3FE02B070BD012B41
:1085D400F7D00321F6E7D3B2072BF6D8930003F1C3
:1085E400804303F5C043D3F8100540F00100C3F8FD
:1085F400100502F14000800080B2FFF7C1FE00299F
:10860400E3D095F9303054F82330002BDDD001232A
:1086140003FA02F2024BC3F80423D6E7CC27002066
:108624000060004007B502AB43F8040D1846FFF79D
:10863400B3FE019BD0F81005D84000F0010003B050
:108644005DF804FB2DE9F04F002489B0CDE9024424
:108654005F4A604E604D01211368A2F5C040012BB2
:1086640080B206D1D6F804330B4202D0FFF788FE5D
:108674000C430432AA424FEA4101EDD1574B1B6827
:10868400012B0ED14FF4BE70FFF77AFE4FF0A043DA
:1086940044F00044D3F810350293514BD3F810350D
:1086A400039314F0FF0F1AD04E4F002501263442D5
:1086B40010D0AB0003F1804303F5C043D3F8100599
:1086C400D3F8101557F82530C0F30520C1F3014144
:1086D40003B198470135082D4FEA4606E7D1002C2F
:1086E40072DA04AE0023049373604FF0FF33CDE9D4
:1086F40006333C4F4FF0010800252C467B1993F9B3
:108704006020531C47D0D2B222F0C00908A84FEA17
:10871400D90300EB030B02F007011BF8080C08FA5D
:1087240001F1084237D007EB0900920990F93000B3
:1087340057F820A0BAF1000F05D1032A2BD1F05C21
:108744000843F05401E0032AF9D001A8CDF80490BD
:10875400FFF722FE019B03F5E07350F823301BF86A
:10876400180C0842C3F3014305D0022B13D1032A8A
:108774000BD1114604E0032B0DD1032A05D10221AC
:108784004846FFF715FE0134E4B2BAF1000F02D0F7
:1087940011464846D0470135042DAFD1A4B14FF05E
:1087A400A0430299D3F8102503F540739142D3F8FE
:1087B400103502D10399994206D002920393049A88
:1087C400059B0692079397E709B0BDE8F08F00BFB9
:1087D4000061004000600040206100407C61004076
:1087E40000030050CC270020014B1B68184700BF32
:1087F400382800200023435082B043580193019B42
:1088040002B07047D0F8103170B505460C4653B12C
:108814004FF48871FFF7EEFF63795A0703D5236895
:108824000BB101209847D5F814315BB14FF48A712C
:108834002846FFF7DFFF63791B0703D523680BB1D5
:1088440002209847D5F81C315BB128464FF48E714D
:10885400FFF7D0FF607910F0100002D1236803B154
:108864009847D5F8043163B14FF482712846FFF775
:10887400C1FF0123237123681BB10320BDE87040AD
:10888400184770BD38B51D4602230B710B684A7139
:1088940004467BB112F0040F14BF92218221100709
:1088A40048BF41F02001D306236848BF21F080016E
:1088B400C3F8001320684FF48271FFF79BFF206810
:1088C40012F0800F05BF012343514019002038BD29
:1088D4002DE9F04F90F80480594C4FEAC80563190C
:1088E4000E461B7985B0074603F0FF01002B40F0CC
:1088F400A480DFF854C144F838204FF0FF390A4609
:108904004FF0030A4FF0010EB15CFF2900F0928092
:1089140021F0800308064DF822307ED51F2B87BF37
:1089240001F01F00E34618464FF0A04B0EFA00F08A
:10893400CBF808051F2B8ABF01F01F034FF0A0419D
:10894400614603F5E07341F823A00132042ADBD128
:108954003868009BC0F86035019BC0F86435029B01
:10896400C0F86835039BC0F86C350123C0F80035A6
:10897400B27933897179C0F80C15C0F80425C0F8B0
:1089840008357389C0F810350023C0F800324FF45D
:108994008E71C0F80033FFF72DFF4FF488713868EB
:1089A400FFF728FF4FF48A713868FFF723FF4FF46D
:1089B40082713868FFF71EFF54F8383033B33A68D1
:1089C4003179120B53B2002BA8BF03F16040D2B22D
:1089D4004FEA5313B8BF02F00F064FEA4111B4BF78
:1089E400184800F561404FEA8303C9B203F16043BC
:1089F400B4BF815580F8001303F5614302F01F02F0
:108A0400012101FA02F2C3F880211A602C440123E7
:108A14002371002005B0BDE8F08F1F2B87BF01F044
:108A24001F00E34618464FF0A04B0EFA00F0CBF8B7
:108A34000C057FE74DF8229087E70820EAE700BF9E
:108A44004028002014ED00E000030050F0B40D466F
:108A54001C461A490379D5F800C0AF88AE68ED68A2
:108A640001EBC3010368C3F820C5C3F82475C3F838
:108A74002865C3F82C55C3F840C5C3F84475C3F83A
:108A84004865C3F84C5502F0010505EB5202C3F8E2
:108A94001425E20710D414F0020203D0002D14BFF1
:108AA40008220422002DC3F80022E2B214BF0C23D2
:108AB4000823F0BCFFF7E6BE1022F3E740280020AD
:108AC40001490248FFF79EBE4028002000C0014033
:108AD40001490248FFF796BE4828002000100240D2
:108AE40001490248FFF78EBE5028002000200240B2
:108AF40048B9012A02D1012907D00246012905D02B
:108B04000AD3022905D0072070470E22044B1A709D
:108B14007047034B5A707047014B9A70704700BFFF
:108B24005828002008B5012202210020FFF7E0FFA9
:108B340008B1072810D1072202210120FFF7D8FF2E
:108B440008B1072808D100210A220846FFF7D0FF00
:108B540010B1072808BF002008BD00000388102BAF
:108B640010B502D0112B1ED010BD1A4C2168B1B91A
:108B740001220846FFF7BCFF08B1072824D10722C9
:108B840002210120FFF7B4FF08B107281CD10422F9
:108B940002210020FFF7ACFF08B1072814D1236895
:108BA40001332360E0E70B4A1368013B1360002B99
:108BB400DAD1FFF7B7FF0028D6D0074B1B68002B8C
:108BC400D2D0BDE810401847034B1B68002BE6D0F9
:108BD4009847E4E7602800205C28002075DF704790
:108BE40076DF70478ADF70478BDF70478FDF70470F
:108BF40008B5FFF7F9FF07490748FFF7F3FF08B186
:108C0400FEF76AF90120FFF751FA0320BDE8084096
:108C1400FFF738BAB820002040AD0200FFF7E8BFE4
:108C24000146014800F090BF64280020262810B5B2
:108C34000C4609D10C4801F073F848B143F2020222
:108C4400904210D008280ED0BDE81040FEF744B979
:108C5400064B074918880004224640F00300BDE88B
:108C64001040FDF79BBE10BD64280020881D002025
:108C7400AAAC020070B50D78012D06460C4602D050
:108C8400022D1CD070BD0A1D1748498801F074F8E4
:108C9400164B628818881649000440F00300FDF75B
:108CA4007DFEFEF703F908B1FEF716F9304601F030
:108CB4000BF80028E6D0BDE87040FEF70DB90B4B69
:108CC4000A7918880B49000440F00300FDF766FE9A
:108CD400237928461BB1BDE87040FFF7D3B9BDE83E
:108CE4007040FFF7E3B900BF64280020881D00200E
:108CF400D6AC020009AD020038B5054D044645F076
:108D040001054FF47A40A847013CFAD138BD00BFB1
:108D1400D0AC0200FF288CBF0020C0F1FF00FF2967
:108D2400094B8CBF0021C1F1FF01FF2A8CBF002237
:108D3400C2F1FF02188059809A8004490448022332
:108D44000122FFF783BE00BFC020002030AD020027
:108D5400DC1D002003881F2B37B504466AD024D8B5
:108D6400112B30D01D2B39D0102B1CD1394B3A4943
:108D74001888000440F00300FDF70CFE0022A188CF
:108D8400364800F0F9FF08B1FEF7A6F8A188344888
:108D940000F04AFC08B1FEF79FF80120FFF772F9D2
:108DA4000320FFF783F903B030BD3B2B4CD0562B87
:108DB4004AD0212BF7D102A9002321F8043D808851
:108DC400FFF714FF3BE0234B26491888000440F0CA
:108DD4000300FDF7DFFDFFF70BFFE4E7818C224A78
:108DE400006A00F0C7F90028F5D01A4D1F492888F9
:108DF400000440F00300FDF7CDFDA18C206AFF22A2
:108E040000F0A8F90446288819490004A21C40F07F
:108E14000300FDF7C3FD00224FF480411548FEF71F
:108E2400EDFA08B1FEF758F82279E178A078FFF757
:108E340071FFB8E700F108018088FFF7CFFE002832
:108E4400B1D0FEF749F8AEE71321A088FFF7C8FEBA
:108E5400F5E700BF881D002074AC020064280020E0
:108E6400EC1D00207FAC020054AD02008DAC02006A
:108E740098AC0200A82800201FB54FF40041002040
:108E8400FDF7C0FB08B1FEF727F8FDF7EBFAFEF794
:108E940073FA08B1FEF720F8384A39480021FEF782
:108EA4009BFA08B1FEF718F80120FFF723F940F206
:108EB400666201213348FDF7A5FF08B1FEF70CF8FF
:108EC400FEF77AFF08B1FEF707F800F0BFFF08B11C
:108ED400FEF702F804AC002344F80C3D01202146BF
:108EE40001F07AF808B1FDF7F7FF204601F01EF90A
:108EF40008B1FDF7F1FF0021234800F017FD08B188
:108F0400FDF7EAFF214800F055FB08B1FDF7E4FF47
:108F14001F4B20480193214600F06EFE08B1FDF777
:108F2400DBFF1D4A10685168234603C3906818602C
:108F3400002221461948FFF7CBFC08B1FDF7CCFF0E
:108F4400642211461046FFF7E5FE4FF47A70FFF7EE
:108F5400D3FE134B13491888000440F00300FDF7B7
:108F640019FDFFF745FE0320FFF78CF8FDF7B0FB72
:108F74000028FBD1FEF736FFF8E700BF218C020082
:108F840050AD0200E41D002074280020258C02004E
:108F9400798C02006428002068AC0200DC1D0020EB
:108FA400881D002059AD02000369C1688B429DBF32
:108FB4008268D21802F1FF3203F1FF3394BF501AD2
:108FC400581A70472DE9F041D0E902670446F61BB0
:108FD4004068964288461546384405D901F0A3F9FD
:108FE4003D44E560BDE8F0813246AD1B01F09BF9DC
:108FF4002A4608EB0601606801F095F9F1E72DE9CE
:10900400F843C5680646894617464FF00008346998
:10901400B3687068A54228BFE418013C621B5C1B5E
:10902400BC4228BF3C46944228BF144649462844C3
:10903400224601F078F9B3682544AB4208BF002505
:109044003F1BA044A144F560E1D14046BDE8F8834C
:1090540010B5114C114AA2610223C4E90433104B28
:10906400E361A2644FF400730E4A2362E2640023B6
:1090740010220D49A362E01D6362E362A365636588
:10908400E365226501F0ABF90849204601F0A7F930
:109094002023A37110BD00BFC828002079AD0200B1
:1090A400502900204029002082AD020086AD020034
:1090B400F8B5184C182300FB033503FB0040254486
:1090C400C46A012C0F46164611D003D3022C1BD0C0
:1090D40000240AE02846FFF767FF864205D8324697
:1090E40039462846FFF76EFF34462046F8BD284629
:1090F400FFF75AFF8642344628BF044622463946C3
:109104002846FFF75FFFF0E72846BDE8F840FFF781
:1091140076BF00BFC8280020FFF79ABF70B5C0B162
:109124004AB116880024B44203D305196D789D42D0
:1091340008D0A14201D800200BE0055D01352C4484
:10914400A4B2F0E7A142F6D9A31C1380005D013854
:1091540080B270BD37B502AC002324F8023D13463B
:1091640022460546FFF7DAFF10B1BDF80600284491
:1091740003B030BDF7B500230746ADF806301446FA
:1091840012B9002003B0F0BD09230DF10602FFF768
:10919400C5FFBDF806500646002DF2D00028F0D0D9
:1091A400204601F03EF9B0420246EAD17919204640
:1091B40001F083F8B0FA80F04009E3E773B5019158
:1091C400019C06466CB100252C46294601A8FEF7F1
:1091D400F1F918B106EB440301349D800135142DD7
:1091E400F3D13046346002B070BD00002DE9F04385
:1091F40003888488112B8DB0064640D01A2B43D0A7
:10920400102B16D1294DAB680CA8DB4340F8303D38
:1092140055F8041FFEF7F7F9009901A8FFF7CEFFF0
:109224000027019B9F4207D3132C18D90420FDF774
:1092340053FE0DB0BDE8F08301AB03EB47034FF0E1
:109244000008B3F8049005EB0800494608F1040847
:10925400FEF7A6F9B8F1740FF5D10137E1E721461D
:109264001348FEF794F921461248FEF790F9F37B70
:10927400012BDED010482146FEF789F9D9E70C48C6
:109284002146FEF78DF9D4E7057A0C482D09012D06
:10929400214606D9FEF77BF9022D21460848F0D075
:1092A400EAE7FEF77DF921460548EAE7502B00205E
:1092B400582B0020542B00205C2B0020602B002016
:1092C400642B00209BDF70479DDF70479EDF704753
:1092D40030B50C4B0C4A19680023994201D1002087
:1092E4000CE002EB8304A5788478A54207D132F818
:1092F40023500488A54202D1044B186830BD0133C1
:10930400EBE700BFD02B0020D82E0020C82B002074
:1093140070B590F8C63216467622A0B002FB030060
:109324000D46FFF7D5FF044660B17C22002101A859
:1093340001F022F801238DF80430ADF8066002959F
:1093440001A8A04720B070BD2DE9F74F90F8C6B230
:109354004FF0760A80460BFB0A00CDE90012FFF7B6
:10936400B7FF814648B3164F3D68052D25D8154CE7
:10937400019AEE01A0190AFB0B8142805246043087
:1093840000F0D1FF009B63B10023A35526440135AF
:10939400C6F87C900C4E3D60326895420DD1002594
:1093A40006E00223F1E704EBC5100135C36F9847CB
:1093B40033689D42F7D300233B6003B0BDE8F08FD0
:1093C400D42E0020D42B0020D02B002037B590F8C9
:1093D400C53290F8C6220C46BBB1013B7621DBB204
:1093E4005143122505FB031303445B8A0133ADF893
:1093F4000430762303FB020201A91389ADF8063079
:109404002046FFF761FF03B030BD762303FB020360
:10941400DB88ECE738B54FF433720D46002104467F
:1094240000F0AAFF114AA4F8CA5200231360104A9C
:1094340084F8C9321268226084F8C63284F8C532CE
:10944400224601212846FFF73DFF112806D020B906
:10945400012384F8C73284F8C80238BD012284F895
:10946400C72284F8C8221846F7E700BFD42E00208C
:10947400D82E002070B50C4690F8C9221749013245
:109484000968D2B28A42034680F8C9224FF0000527
:1094940021D290F8C61280F8C5520131C9B280F8C1
:1094A400C612762011FB00F00D4E1A1856F8211042
:1094B4001950012115712046FFF704FF014648B1F8
:1094C40083F8C75222461846FFF722FF054B0322B2
:1094D4001A705C8070BD80F8C752F7E7D02B00206B
:1094E400D82E0020D42B00202DE9F74F90F8C64247
:1094F40090F8C562762314FB03F700EB07084FF0DE
:10950400120C98F804E01CFB0673741C0A337445AF
:10951400034419D006EBC6056D0044193C4405EB21
:1095240007090EF1FF3A00271C3406EB070B5FFA1C
:109534008BF5AE450DD9DA451D891CD1B8F8083034
:109544009D422AD1002321E01B89B8F808008342F8
:1095540005D101230B70002003B0BDE8F08F013367
:10956400ADF80430ADF8060000230B70104601A9D5
:10957400FFF7ACFEF0E70CFB07F309EB030B8344A6
:109584000135BBF822B05D450DD1234490F8C55296
:10959400013580F8C5520137C7E70135ADF80450ED
:1095A400ADF80630E0E70BF1FF3BADF80450ADF841
:1095B40006B0D9E758B1074A00231360064A0121CF
:1095C4001170064A1360064A1060184670470E2050
:1095D400704700BFD02B0020CC2B0020D42E0020BD
:1095E400C82B002010B5044680B10C4B1B787BB10E
:1095F400FFF76EFE70B90A4A1368052B0CD80949A7
:10960400246841F823400133136010BD0E20FCE7A9
:109614000820FAE70020F8E70420F6E7CC2B002026
:10962400D02B0020D82E002050B1084A12784AB11D
:10963400074A126832B190F8C7322BB9FFF7EABE75
:109644000E2070470820704711207047CC2B002053
:10965400D02B00202DE9F7430C460546C8B1C1B113
:109664008C4B1B78ABB10388302B35D014D8112B1D
:1096740000F0008194F8C8325BB12B88303B1F2B7B
:1096840007D8AB88B4F8CA12994202D12046FFF732
:10969400C1FE03B0BDE8F083322B42D0332BE9D1B5
:1096A4008288B1F8CA329342E4D1C68891F8C6C21E
:1096B40091F8C572002E00F0A280762101FB0C4CBB
:1096C4007B1C9CF8041000268B428DF8076000F088
:1096D400C68084F8C53289E08388B1F8CA229A42E8
:1096E400C8D1C688A6B991F8C632C068762113FBE2
:1096F40001F3E118E0502B69C1F806302046114609
:10970400FFF764FE01460028B4D084F8C7624BE03A
:1097140000212046FFF718FEA9882046FFF7AAFE7D
:10972400A8E78288B1F8CA329342A3D1C388002B38
:1097340059D191F8C602762310FB03F001EB000C1B
:10974400A97A9CF8043019440629C8BF062100F1FF
:109754000A0E12208CF8041010FB03E105F10C082A
:1097640060184FF000099CF804108B4208F10A08B5
:1097740000F1120022D31220013B00FB0343734487
:109784001889BCF8083098422DD206292BD084F8C9
:10979400C51220461146FFF719FE014600283FF482
:1097A40069AF002384F8C732AA882046FFF7B0FDCA
:1097B400394B03221A70AA885A805BE74746013363
:1097C40057F80A1D40F8121C796840F80E1C3989B4
:1097D40020F80A1C20F8089C20F8069C20F8049C19
:1097E40020F8029CBFE7002684F8C5620DF107014A
:1097F4002046FFF779FE0146002833D085E776231B
:1098040003FB0CF1122303FB0713B0F80AE0234413
:109814007645BFF452AFC189A1F52451082908D86F
:10982400DFE801F014170507070707071A00818905
:109834009982998A39B1D98A29B1198B19B1598B6D
:1098440000297FF43AAF01360630E1E78189D982F5
:10985400EFE781891983ECE781895983E9E70123DB
:109864008DF807309DF80730002B3FF403AFAA882A
:1098740001214EE78288B1F8CA329A427FF4FAAEE7
:10988400002381F8C73281F8C8324FF6FF73A1F87C
:10989400CA32EFE6CC2B0020D42B002090DF704797
:1098A400A5DF7047B5DF7047F0B585B00023ADF88C
:1098B4000810ADF80A106A4602A9074603930093FC
:1098C400ADF80430FFF7EAFF064618B3134C2588B9
:1098D400FEF7E2FA2D0445F0010503463A46104925
:1098E4002846FDF765F8BDF80020BDF8023002B93E
:1098F40033B120880B49000440F00100FDF758F80B
:10990400BDF8042032B120880749000440F001006A
:10991400FDF744F8304605B0F0BD00BFA01D00209F
:1099240099AD0200E3AD020022AE020080B14FF017
:10993400171303601B2303711723C380038141F6AC
:109944001B32002301618372C372828118467047FF
:109954000E20704737B5034680880C46A0B91A8894
:10996400232A00F0AC8011D8102A25D0112A53D014
:10997400A37A4BB1E1880020FFF792FF002840F062
:10998400A4800123A072E37203B030BD3A2A4CD004
:10999400552A66D0242AEBD11A7A0B694A73002B14
:1099A400E6D04DF67A21ADF80400ADF80010ADF81C
:1099B40002008DF804207EE0DB7B0A790A73012B18
:1099C40013D0022B14D0E18823898B4205D20020C6
:1099D400FFF766FF70B90123E372217B637B8B423F
:1099E400C6D20020FFF760FFC2E70B88E380EAE7F6
:1099F4004B88FBE7112802D10123A372EDE73B4B0F
:109A04001D88FEF749FA2D0445F001050246384940
:109A14002846FCF7C3FFE0E71723CB800B8141F610
:109A24001B338872C8728B81A2E75B89CA88934210
:109A340028BF1346172B0A6938BF17230B8162B15D
:109A4400C97A51B140F67721ADF80010ADF80200A3
:109A5400ADF804306946204690470023E372A372B0
:109A640086E7DB88C988A072172B38BF17238B427F
:109A740028BF0B462381FFF715FF58B11B4B1D88E8
:109A8400FEF70AFA2D0445F0010502461949284655
:109A9400FCF784FFE27A002A7FF46AAF2369002B83
:109AA4003FF466AF40F67721ADF802202289ADF885
:109AB4000010ADF8042069462046984758E7197A03
:109AC400237B994228BF19468CE711283FF45CAFE9
:109AD400064B1C88FEF7E0F9240444F00104024616
:109AE40003492046FCF75AFF4EE700BFA01D0020A3
:109AF40078AE0200A9AE0200A1DF7047A3DF704771
:109B040062DF704770B50D4A0D4D12682B689342A1
:109B14000ED00C4914245C430E19085BB27842B988
:109B2400B188FFF7E9FF18B9013303F007032B608D
:109B340070BD08342144FFF7E1FFF4E7942F0020BF
:109B4400902F0020F02E00202DE9FF470B780246CD
:109B5400002B3DD18C8841F22350844238D18C793A
:109B6400107B844234D101208DF8040091F80880E0
:109B74004888BDF80C70BDF80A50BDF80840ADF82F
:109B840006001E469C46184641F2245941F2255AC5
:109B9400804520D8BCF1000F01D0ADF80C700EB197
:109BA400ADF80A500BB1ADF8084011884FF6FF73B9
:109BB400994209D053683BB953882BB90298BDF830
:109BC4000C30C2F80200D380936801A9104698476C
:109BD40004B0BDE8F087B1F80EE0CE4507D0D64515
:109BE40002D1CF8A4FF0010C01301231D0E70123AA
:109BF400CD8A0C8B1E46F7E7F0B5174A87B002AC46
:109C040003460E4602F1100C27461068516825469B
:109C140003C5083262452C46F7D1D3B1CEB13268C0
:109C2400BAB14FF6FF700021C3E900019A6003F155
:109C34000C013846FFF764FF48B91B7B8DF80630EA
:109C440006A841F2235320F8143DFFF7CBFC07B0DC
:109C5400F0BD0E20FBE700BFE5AE02001FB50B46CA
:109C640041B338B30288382A26D0392A0BD0112AB6
:109C740020D181881A88914202BF4FF6FF710022D9
:109C8400C3E9001216E0098882888A4212D1448905
:109C940099888C420ED1C18901290BD10221ADF8DA
:109CA4000620027C8DF804108DF8082001A99A681A
:109CB4001846904704B010BD0A8883889A42F9D1A7
:109CC400FFF720FFF6E7000038B508B305884FF624
:109CD400FF739D421ED0104A448811680F484B1CE4
:109CE40003F00703136014224A4383180221D98125
:109CF400111D01445C8119610024012185529C815C
:109D0400197219715C719970FFF7FCFE204638BD19
:109D14000E20FCE70820FAE7942F0020F02E002004
:109D2400F8B500B307884FF6FF739F421DD0104A61
:109D3400104D1468C088631C03F0070313601422D9
:109D44006243AB1801265881101D28441861002471
:109D540002201872DE819C8119719E70AF52FFF748
:109D6400D1FE2046F8BD0E20FCE70820FAE700BF2C
:109D7400942F0020F02E002040B1018022B11368FE
:109D8400C0F802309388C380002070470E207047CB
:109D940010DF704711DF704713B504460949684660
:109DA400FEF746F8019808B902B010BDD0E90031B9
:109DB4002046984718B16846FEF744F8F2E71120A8
:109DC400F2E700BF04AF020013B504460749684632
:109DD400FEF72EF8019B0BB902B010BD2046D3E963
:109DE400002190476846FEF72DF8F3E71CAF020008
:109DF400064B9A6822B11A6822F480021A607047EE
:109E0400034B4FF48002C3F880207047782700206A
:109E140000E100E00B4A92F816335B09012B08D9E4
:109E2400042B06D0084B996839B94FF480031360AA
:109E3400704742F20200FDF74FB81A6842F48002FC
:109E44001A60704700E100E078270020F7B5184F4A
:109E54003C785CBB174E012520463570FFF79CFF0C
:109E6400112820D02046FFF7AFFF134B186801904C
:109E740002A800F8054DFDF715FB104901A8FFF7EE
:109E840087FF0446B0FA80F0400938709DF803005B
:109E9400FDF72CFB3CB90A4B34701C70FFF7BAFF7A
:109EA4002846FFF791FF204603B0F0BD0824FAE7E7
:109EB400992F0020982F0020FFAE0200F96E0200B7
:109EC4009A2F0020F7B5154F3B7813B3144E012099
:109ED4003070FFF761FF11284FF000051BD00220FE
:109EE400FFF772FF02A800F8015DFDF7DBFAFFF748
:109EF40051FF04469DF807003D70FDF7F7FA2CB9B1
:109F04003470FFF775FF0320FFF75EFF204603B0B0
:109F1400F0BD0824FAE72C46F8E700BF992F00208B
:109F2400982F0020054B1B7833B1054B1B780BB1E0
:109F3400FFF7C8BFFFF78ABF08207047982F00209B
:109F4400992F0020014B1878704700BF992F0020EB
:109F540007B508496846FDF76BFF019B13B903B0C9
:109F64005DF804FBD3E9002090476846FDF76AFFDB
:109F7400F3E700BF10AF0200FFF7EABF60DF7047EE
:109F840069DF704761DF704730B5114B1B7891B0C2
:109F9400E3B1104D34240DF1020103A8ADF80240E1
:109FA400FFF7F0FF70B9294601A8FDF741FF029BB6
:109FB400002BF0D003A8D3E90021904701A8FDF7B6
:109FC40041FFF4E7052801D0FCF786FF11B030BD4E
:109FD4009B2F00205CB1020030B5054685B00C46CD
:109FE400002900F093804A4B0B600C22002101A849
:109FF40000F0C2F901238DF8063022688DF8045070
:10A00400062301A92020ADF80830FFF7B9FF58B1A5
:10A01400404B1D88FDF740FF2D0445F00105024625
:10A024003D492846FCF7BAFC0C22002101A800F0A7
:10A03400A3F900238DF805302268012301A94020EB
:10A044008DF806308DF80730FFF79AFF58B1314B81
:10A054001D88FDF721FF2D0445F0010502462F4917
:10A064002846FCF79BFC0C22002101A800F084F98F
:10A074000A2322688DF8043001A90120FFF780FF2C
:10A0840058B1244B1D88FDF707FF2D0445F0010549
:10A09400024623492846FCF781FC0C22002101A832
:10A0A40000F06AF9F8232268019301A9A120FFF7BF
:10A0B40067FF58B1174B1D88FDF7EEFE2D0445F0E0
:10A0C4000105024617492846FCF768FC0C220021CA
:10A0D40001A800F051F99DF8043022686FF30003E1
:10A0E40001A9A0208DF80430FFF74AFF60B1094BA5
:10A0F4001C88FDF7D1FE240444F0010402460A49F9
:10A104002046FCF74BFC002005B030BD0E20FBE7D9
:10A11400701D0020AC1D002030AF020076AF02009D
:10A12400C2AF02000EB002005FB00200F8B50446F0
:10A134000768FFF723FF2368BB42054620D91A4E60
:10A144001A493088000440F00200FCF723FC3088F0
:10A154002368174900043A4640F00200FCF728FC43
:10A164004FF080533088D3F80C31226811499B0298
:10A1740003F1005300049A1A40F00200FCF70EFCAD
:10A1840025B90D4B01221A702846F8BD064B284606
:10A194001C88FDF781FE240444F0010402460749AB
:10A1A4002046FCF7FBFBEFE7AC1D0020B2B0020039
:10A1B400E1B0020012B102009B2F00203CB102006A
:10A1C4004BDF70471FB50D4C01A8FFF7F9FF70B9BD
:10A1D400214602A8FDF72CFE039B002BF4D0019826
:10A1E400D3E90021904702A8FDF72CFEF4E70528E7
:10A1F40001D0FCF771FE04B010BD00BF74B10200C1
:10A204007F2805D8034B185C034B5B5C18407047F0
:10A21400002070478CB102000CB20200A0F161036F
:10A22400192B98BF20387047A0F14103192B98BF10
:10A23400203070477F2805D8034B185C034B5B5CC8
:10A2440018407047002070478CB102000CB2020025
:10A25400A0F16103192B98BF20387047A0F1410386
:10A26400192B98BF203070477F299ABF01700120B5
:10A274006FF02E0070475AB10A787F2A0AD800B1CD
:10A284000260002119605960501A18BF01207047FC
:10A29400002070476FF02E007047000008B5034B94
:10A2A4005B689B681B68984708BD00BFC8200020F6
:10A2B40008B50921FFF7F2FF08BD92B370B4134645
:10A2C40040EA010212F0030F17D05A1E10D004788E
:10A2D4000B789C420CD1431C4C1C0244184621466A
:10A2E400934205D00133013406780D78AE42F5D09F
:10A2F40000780B78C01A70BC70470F2BE5D904683E
:10A304000A689442E1D1041D0A1D20461146043B0B
:10A31400042BDAD90434043206680D68AE42F4D052
:10A32400D3E700207047844640EA010313F0030F8B
:10A3340018D18446202A0BD32DE9F007B1E8F80799
:10A34400A0E8F807A2F12002202AF7D2BDE8F0071E
:10A35400042A07D351F8043B40F8043BA2F1040259
:10A36400042AF7D2002A05D011F8013B00F8013B7A
:10A37400013AF9D1604670478446002A2DD010F086
:10A38400030F04D000F8011B013A26D0F7E7C9B245
:10A3940041EA012141EA0141202A12D3A2F120021B
:10A3A4002DE9F0030B460C460D460E460F46884633
:10A3B4008946A0E8FA03203AFBD2BDE8F003203234
:10A3C4000BD0042A05D340F8041B043A05D0042A10
:10A3D400F9D200F8011B013AFBD1604670470246EE
:10A3E40010F0030F16D111F0030F13D12DE9F00073
:10A3F4004FF001374FF0803351F8044BA4EB0705BD
:10A4040025EA04051D4002D142F8044BF4E7A1F10A
:10A414000401F0BC11F8013B02F8013B002BF9D117
:10A42400704700F1010110F0030F11D010F8012B57
:10A43400002A23D010F0030F0AD010F8012B002AB1
:10A444001CD010F0030F03D010F8012B002A15D0F4
:10A454002DE970004FF001324FF0803350F8044B77
:10A46400A4EB020525EA04051D4000D1F6E7A0F19E
:10A47400040070BC10F8012B002AFBD1A0EB0100F2
:02A4840070471F
:10A48800997B020000000000E98102000000000042
:10A49800F191020000000000618B02000000000042
:10A4A80059960200EC1D00205999020074280020DA
:10A4B800619C020064280020598D02000000000001
:10A4C80048AC0200000000004EAC02000000000092
:10A4D80055AC02000000000064AC0200000000005F
:10A4E80059AC0200000000005EAC02000000000051
:10A4F80005A602000000030323A7020000000003D2
:10A5080009A60200000000038DAD0200000003034D
:10A51800F5AE02000000030342AC02000000000098
:10A52800D8AE02000000030316A7020000000303D0
:10A5380028AF02000000030368B102000000030313
:10A5480080B102000000030340A7020000000000E1
:10A5580020210020E8210020F021002028210020CF
:08A56800901D00201800000006
:10A57000417C020000000000658202000000000033
:10A580008D9F020000000000C9A102000000000031
:08A59000E17A02000000000066
:10A5980000000000000000000000000000000000B3
:10A5A80000000000000000000000000000000000A3
:10A5B8000000000000000000000000000000000093
:10A5C8000000000000000000000000000000000083
:08A5D80000000000000000007B
:10A5E0000338FDD87047000029630200956302001C
:10A5F000256302004261636B656E647320666C754F
:10A6000073686564006170700062616C6C6F632ECA
:10A610006C6F675F6D656D706F6F6C004FA60200A9
:10A6200094A6020054A602009CA60200A4A6020062
:10A63000ACA60200B4A60200BCA60200C4A602009A
:10A64000202530327800202020007C002563001B6C
:10A650005B306D001B5B313B33316D0025734C6FFC
:10A6600067732064726F70706564202825642925E3
:10A67000730D0A003C25733E2025733A200000002C
:10A6800000000000EAA60200CCA60200D4A6020048
:10A69000D9A602001B5B313B33306D001B5B313BA5
:10A6A00033326D001B5B313B33336D001B5B313B41
:10A6B00033346D001B5B313B33356D001B5B313B2D
:10A6C00033366D001B5B313B33376D007761726E43
:10A6D000696E6700696E666F006465627567000089
:10A6E0001C260020466174616C206572726F7200D6
:10A6F00053797374656D2072657365740000000092
:10A700000338FDD870473031323334353637383975
:10A710004142434445466E72665F6673746F726170
:10A7200067650061746669666F2E6D5F6669666F46
:10A7300000000000C8A40200C8A402000400000039
:10A740007077725F6D676D7400556E6B6E6F776EAC
:10A75000206572726F7220636F64650000000000F4
:10A7600084A802000100000090A80200020000007E
:10A77000AEA8020003000000CFA802000400000001
:10A78000E2A8020005000000F3A802000600000095
:10A7900007A90200070000001FA90200080000002E
:10A7A00037A90200090000004FA902000A000000BA
:10A7B00068A902000B00000080A902000C00000044
:10A7C00097A902000D000000ABA902000E000000D6
:10A7D000BDA902000F000000CCA90200100000007B
:10A7E000E0A9020011000000F7A902001200000019
:10A7F00006AA0200130000001BAA0200800000004D
:10A800002FAA02008100000050AA0200820000006E
:10A810006CAA02008300000088AA020084000000E5
:10A82000A6AA020085000000C7AA02008600000058
:10A83000ECAA02009000000003AB020091000000AF
:10A8400021AB0200920000003FAB0200008200003A
:10A8500054AB02000182000072AB020002820000D1
:10A860008EAB020000840000AAAB0200018400004D
:10A87000CEAB020002840000F8AB020003840000AB
:10A880001DAC02004E52465F53554343455353009F
:10A890004E52465F4552524F525F5356435F4841B6
:10A8A0004E444C45525F4D495353494E47004E521A
:10A8B000465F4552524F525F534F465444455649A6
:10A8C00043455F4E4F545F454E41424C4544004E18
:10A8D00052465F4552524F525F494E5445524E4187
:10A8E0004C004E52465F4552524F525F4E4F5F4DA5
:10A8F000454D004E52465F4552524F525F4E4F54A7
:10A900005F464F554E44004E52465F4552524F529D
:10A910005F4E4F545F535550504F52544544004E74
:10A9200052465F4552524F525F494E56414C494440
:10A930005F504152414D004E52465F4552524F5278
:10A940005F494E56414C49445F5354415445004E73
:10A9500052465F4552524F525F494E56414C494410
:10A960005F4C454E475448004E52465F4552524F49
:10A97000525F494E56414C49445F464C4147530053
:10A980004E52465F4552524F525F494E56414C49D6
:10A99000445F44415441004E52465F4552524F522B
:10A9A0005F444154415F53495A45004E52465F450A
:10A9B00052524F525F54494D454F5554004E5246E6
:10A9C0005F4552524F525F4E554C4C004E52465FBF
:10A9D0004552524F525F464F5242494444454E0001
:10A9E0004E52465F4552524F525F494E56414C4976
:10A9F000445F41444452004E52465F4552524F52CA
:10AA00005F42555359004E52465F4552524F525F76
:10AA1000434F4E4E5F434F554E54004E52465F4596
:10AA200052524F525F5245534F5552434553004E79
:10AA300052465F4552524F525F4D4F44554C455F11
:10AA40004E4F545F494E495449414C495A45440080
:10AA50004E52465F4552524F525F4D555445585FD6
:10AA6000494E49545F4641494C4544004E52465F69
:10AA70004552524F525F4D555445585F4C4F434BD2
:10AA80005F4641494C4544004E52465F4552524F45
:10AA9000525F4D555445585F554E4C4F434B5F46A2
:10AAA00041494C4544004E52465F4552524F525F19
:10AAB0004D555445585F434F4E445F494E49545F8E
:10AAC0004641494C4544004E52465F4552524F5212
:10AAD0005F4D4F44554C455F414C52454144595F91
:10AAE000494E495449414C495A4544004E52465FEB
:10AAF0004552524F525F53544F524147455F46555E
:10AB00004C4C004E52465F4552524F525F415049A5
:10AB10005F4E4F545F494D504C454D454E54454452
:10AB2000004E52465F4552524F525F464541545582
:10AB300052455F4E4F545F454E41424C4544004E96
:10AB400052465F4552524F525F494F5F50454E4407
:10AB5000494E47004E52465F4552524F525F445253
:10AB6000565F5457495F4552525F4F5645525255B2
:10AB70004E004E52465F4552524F525F4452565F0E
:10AB80005457495F4552525F414E41434B004E522C
:10AB9000465F4552524F525F4452565F5457495F89
:10ABA0004552525F444E41434B004E52465F455220
:10ABB000524F525F424C455F495053505F52585F6D
:10ABC000504B545F5452554E4341544544004E52ED
:10ABD000465F4552524F525F424C455F4950535079
:10ABE0005F4348414E4E454C5F414C5245414459AC
:10ABF0005F455849535453004E52465F4552524F99
:10AC0000525F424C455F495053505F4C494E4B5F39
:10AC1000444953434F4E4E4543544544004E5246DB
:10AC20005F4552524F525F424C455F495053505F0F
:10AC3000504545525F52454A454354454400160825
:10AC4000290C636C6F636B00434C4F434B004750C0
:10AC5000494F5445005052530055415254005541FC
:10AC60005254450050574D00949698FF020300003F
:10AC7000FF000200436F6E6E65637465642E0044CE
:10AC80006973636F6E6E65637465642E00666F75BD
:10AC90006E64204C4D4E44007961792C2076616CB5
:10ACA00075652069733A202573004C4253207772F2
:10ACB000697465204C454420737461746520256473
:10ACC0000000000000000000000000000000000084
:10ACD0000338FDD870474C454420427574746F6E3C
:10ACE000207365727669636520646973636F766546
:10ACF000726564206F6E20636F6E6E5F68616E6454
:10AD00006C6520307825782E00427574746F6E2043
:10AD10007374617465206368616E676564206F6E2B
:10AD2000207065657220746F20307825782E0000C1
:10AD3000C02000200400000000000000000000000F
:10AD40000401A0005000000000000000000000000E
:10AD5000A82800204C4D4E4400426C696E6B79204F
:10AD600043454E5452414C206578616D706C6520AE
:10AD7000737461727465642E005465726D696E61DE
:10AD80006C005254540053454747455200626C656D
:10AD90005F64625F646973630073645F626C655FC4
:10ADA0006761705F646174615F6C656E6774685F32
:10ADB00075706461746528292028726571756573E2
:10ADC0007429206F6E20636F6E6E656374696F6E99
:10ADD00020307825782072657475726E6564202540
:10ADE000732E0054686520726571756573746564AF
:10ADF0002054582F5258207061636B6574206C6525
:10AE00006E67746820697320746F6F206C6F6E6753
:10AE10002062792025752F2575206F637465747302
:10AE20002E005468652072657175657374656420C1
:10AE3000636F6D62696E6174696F6E206F66205416
:10AE40005820616E64205258207061636B657420D5
:10AE50006C656E6774687320697320746F6F206C03
:10AE60006F6E67206279202575206D6963726F733C
:10AE700065636F6E64732E0073645F626C655F67F9
:10AE8000617474635F65786368616E67655F6D7434
:10AE9000755F7265717565737428292072657475A4
:10AEA000726E65642025732E0073645F626C655F4B
:10AEB00067617474735F65786368616E67655F6D01
:10AEC00074755F7265706C7928292072657475726B
:10AED0006E65642025732E006E72665F626C655F1E
:10AEE000676174740023D1BCEA5F782315DEEF122A
:10AEF0001200000000626C655F6C62735F630001AA
:10AF00000000070090A5020098A5020008000000BC
:10AF100080A5020090A502000800000070A50200B4
:10AF200080A50200080000006E72665F736468000E
:10AF300073645F626C655F6366675F73657428291D
:10AF40002072657475726E6564202573207768655C
:10AF50006E20617474656D7074696E6720746F2003
:10AF600073657420424C455F434F4E4E5F434647E6
:10AF70005F4741502E0073645F626C655F63666774
:10AF80005F73657428292072657475726E6564201C
:10AF90002573207768656E20617474656D707469BF
:10AFA0006E6720746F2073657420424C455F474183
:10AFB000505F4346475F524F4C455F434F554E5499
:10AFC0002E0073645F626C655F6366675F736574B0
:10AFD00028292072657475726E6564202573207748
:10AFE00068656E20617474656D7074696E67207435
:10AFF0006F2073657420424C455F434F4D4D4F4E5B
:10B000005F4346475F56535F555549442E0073646E
:10B010005F626C655F6366675F7365742829207281
:10B02000657475726E6564202573207768656E207F
:10B03000617474656D7074696E6720746F207365D8
:10B040007420424C455F47415454535F4346475F29
:10B05000415454525F5441425F53495A452E007344
:10B06000645F626C655F6366675F7365742829203F
:10B0700072657475726E6564202573207768656EDD
:10B0800020617474656D7074696E6720746F2073CD
:10B09000657420424C455F47415454535F434647D3
:10B0A0005F534552564943455F4348414E474544E7
:10B0B0002E00496E73756666696369656E74205209
:10B0C000414D20616C6C6F636174656420666F72C2
:10B0D0002074686520536F66744465766963652ED5
:10B0E000004368616E6765207468652052414D2099
:10B0F0007374617274206C6F636174696F6E206623
:10B10000726F6D203078257820746F203078257824
:10B110002E004D6178696D756D2052414D20736927
:10B120007A6520666F72206170706C696361746902
:10B130006F6E20697320307825782E0073645F620B
:10B140006C655F656E61626C652829207265747537
:10B15000726E65642025732E0000000098A4020022
:10B16000C8A40200080000006E72665F7364685F26
:10B17000626C650088A4020098A402000800000028
:10B180006E72665F7364685F736F630020202020B7
:10B190002020202020682828282820202020202047
:10B1A00020202020202020202020202048101010A7
:10B1B00010101010101010101010101084848484BF
:10B1C0008484848484841010101010101081818174
:10B1D00081818101010101010101010101010101DF
:10B1E0000101010101010110101010101082828272
:10B1F00082828202020202020202020202020202AF
:10B2000002020202020202101010102000070320A6
:10B21000041702010857104080000000C0B302006C
:10B2200084B2020098B3020053756E004D6F6E0039
:10B23000547565005765640054687500467269006E
:10B2400053617400000000004A616E0046656200B0
:10B250004D617200417072004D6179004A756E0057
:10B260004A756C0041756700536570004F63740048
:10B270004E6F76004465630000000000414D0050B1
:10B280004D000000BCB30200B8B30200B8B3020026
:10B29000B8B30200B8B30200B8B30200B8B30200FA
:10B2A000B8B30200B8B30200B8B30200FFFFFFFF5B
:10B2B000FFFFFFFFFFFFFFFFFFFF0000F8B20200EC
:10B2C00028B2020034B3020048B202007CB202008D
:10B2D000DCB202008CB30200E8B20200256D2F251B
:10B2E000642F257900000000256120256220256556
:10B2F000202554202559000053756E646179004D56
:10B300006F6E646179005475657364617900576587
:10B31000646E6573646179005468757273646179F1
:10B320000046726964617900536174757264617971
:10B33000000000004A616E756172790046656272B4
:10B3400075617279004D6172636800417072696C59
:10B35000004D6179004A756E65004A756C7900414F
:10B3600075677573740053657074656D62657200FE
:10B370004F63746F626572004E6F76656D626572C1
:10B3800000446563656D62657200000025483A25DA
:10B390004D3A25530000000005A2020021A2020040
:10B3A0002DA2020039A2020055A2020061A20200F1
:10B3B0006DA202007BA20200000000002E0000002F
:0CB3C00043000000504F534958000000AB
:10B3CC00E8A50200000000000000000000000000E2
:10B3DC000000000000000000000000008C1D002098
:10B3EC000090D00300C001400000000026000300C4
:10B3FC00318C020000000000000000000000000082
:10B40C000000000000000000000000000000000030
:10B41C000000000000000000000000000000000020
:10B42C000000000000000000000000000000000010
:10B43C000000000000000000000000000000000000
:10B6BC000000000000000000000000000000FFFF80
:10B6CC00882800201F000000FF00FF00FF00FF0083
:10B6DC001CB202001CB202001CB202001CB202001E
:04B6EC001CB202008A
:040000032000626116
:00000001FF
